{
    "contractName": "Ballot",
    "abi": [
        {
            "inputs": [
                {
                    "internalType": "contract IVotes",
                    "name": "_token",
                    "type": "address"
                },
                {
                    "internalType": "contract TimelockController",
                    "name": "_timelock",
                    "type": "address"
                },
                {
                    "internalType": "uint256",
                    "name": "quorum_",
                    "type": "uint256"
                },
                {
                    "internalType": "uint256",
                    "name": "delay",
                    "type": "uint256"
                },
                {
                    "internalType": "uint256",
                    "name": "period",
                    "type": "uint256"
                }
            ],
            "stateMutability": "nonpayable",
            "type": "constructor"
        },
        {
            "inputs": [],
            "name": "Empty",
            "type": "error"
        },
        {
            "anonymous": false,
            "inputs": [
                {
                    "indexed": false,
                    "internalType": "uint256",
                    "name": "proposalId",
                    "type": "uint256"
                }
            ],
            "name": "ProposalCanceled",
            "type": "event"
        },
        {
            "anonymous": false,
            "inputs": [
                {
                    "indexed": false,
                    "internalType": "uint256",
                    "name": "proposalId",
                    "type": "uint256"
                },
                {
                    "indexed": false,
                    "internalType": "address",
                    "name": "proposer",
                    "type": "address"
                },
                {
                    "indexed": false,
                    "internalType": "address[]",
                    "name": "targets",
                    "type": "address[]"
                },
                {
                    "indexed": false,
                    "internalType": "uint256[]",
                    "name": "values",
                    "type": "uint256[]"
                },
                {
                    "indexed": false,
                    "internalType": "string[]",
                    "name": "signatures",
                    "type": "string[]"
                },
                {
                    "indexed": false,
                    "internalType": "bytes[]",
                    "name": "calldatas",
                    "type": "bytes[]"
                },
                {
                    "indexed": false,
                    "internalType": "uint256",
                    "name": "startBlock",
                    "type": "uint256"
                },
                {
                    "indexed": false,
                    "internalType": "uint256",
                    "name": "endBlock",
                    "type": "uint256"
                },
                {
                    "indexed": false,
                    "internalType": "string",
                    "name": "description",
                    "type": "string"
                }
            ],
            "name": "ProposalCreated",
            "type": "event"
        },
        {
            "anonymous": false,
            "inputs": [
                {
                    "indexed": false,
                    "internalType": "uint256",
                    "name": "proposalId",
                    "type": "uint256"
                }
            ],
            "name": "ProposalExecuted",
            "type": "event"
        },
        {
            "anonymous": false,
            "inputs": [
                {
                    "indexed": false,
                    "internalType": "uint256",
                    "name": "proposalId",
                    "type": "uint256"
                },
                {
                    "indexed": false,
                    "internalType": "uint256",
                    "name": "eta",
                    "type": "uint256"
                }
            ],
            "name": "ProposalQueued",
            "type": "event"
        },
        {
            "anonymous": false,
            "inputs": [
                {
                    "indexed": false,
                    "internalType": "uint256",
                    "name": "oldQuorumNumerator",
                    "type": "uint256"
                },
                {
                    "indexed": false,
                    "internalType": "uint256",
                    "name": "newQuorumNumerator",
                    "type": "uint256"
                }
            ],
            "name": "QuorumNumeratorUpdated",
            "type": "event"
        },
        {
            "anonymous": false,
            "inputs": [
                {
                    "indexed": false,
                    "internalType": "address",
                    "name": "oldTimelock",
                    "type": "address"
                },
                {
                    "indexed": false,
                    "internalType": "address",
                    "name": "newTimelock",
                    "type": "address"
                }
            ],
            "name": "TimelockChange",
            "type": "event"
        },
        {
            "anonymous": false,
            "inputs": [
                {
                    "indexed": true,
                    "internalType": "address",
                    "name": "voter",
                    "type": "address"
                },
                {
                    "indexed": false,
                    "internalType": "uint256",
                    "name": "proposalId",
                    "type": "uint256"
                },
                {
                    "indexed": false,
                    "internalType": "uint8",
                    "name": "support",
                    "type": "uint8"
                },
                {
                    "indexed": false,
                    "internalType": "uint256",
                    "name": "weight",
                    "type": "uint256"
                },
                {
                    "indexed": false,
                    "internalType": "string",
                    "name": "reason",
                    "type": "string"
                }
            ],
            "name": "VoteCast",
            "type": "event"
        },
        {
            "anonymous": false,
            "inputs": [
                {
                    "indexed": true,
                    "internalType": "address",
                    "name": "voter",
                    "type": "address"
                },
                {
                    "indexed": false,
                    "internalType": "uint256",
                    "name": "proposalId",
                    "type": "uint256"
                },
                {
                    "indexed": false,
                    "internalType": "uint8",
                    "name": "support",
                    "type": "uint8"
                },
                {
                    "indexed": false,
                    "internalType": "uint256",
                    "name": "weight",
                    "type": "uint256"
                },
                {
                    "indexed": false,
                    "internalType": "string",
                    "name": "reason",
                    "type": "string"
                },
                {
                    "indexed": false,
                    "internalType": "bytes",
                    "name": "params",
                    "type": "bytes"
                }
            ],
            "name": "VoteCastWithParams",
            "type": "event"
        },
        {
            "inputs": [],
            "name": "BALLOT_TYPEHASH",
            "outputs": [
                {
                    "internalType": "bytes32",
                    "name": "",
                    "type": "bytes32"
                }
            ],
            "stateMutability": "view",
            "type": "function"
        },
        {
            "inputs": [],
            "name": "COUNTING_MODE",
            "outputs": [
                {
                    "internalType": "string",
                    "name": "",
                    "type": "string"
                }
            ],
            "stateMutability": "pure",
            "type": "function"
        },
        {
            "inputs": [],
            "name": "EXTENDED_BALLOT_TYPEHASH",
            "outputs": [
                {
                    "internalType": "bytes32",
                    "name": "",
                    "type": "bytes32"
                }
            ],
            "stateMutability": "view",
            "type": "function"
        },
        {
            "inputs": [
                {
                    "internalType": "uint256",
                    "name": "proposalId",
                    "type": "uint256"
                }
            ],
            "name": "cancel",
            "outputs": [],
            "stateMutability": "nonpayable",
            "type": "function"
        },
        {
            "inputs": [
                {
                    "internalType": "uint256",
                    "name": "proposalId",
                    "type": "uint256"
                },
                {
                    "internalType": "uint8",
                    "name": "support",
                    "type": "uint8"
                }
            ],
            "name": "castVote",
            "outputs": [
                {
                    "internalType": "uint256",
                    "name": "",
                    "type": "uint256"
                }
            ],
            "stateMutability": "nonpayable",
            "type": "function"
        },
        {
            "inputs": [
                {
                    "internalType": "uint256",
                    "name": "proposalId",
                    "type": "uint256"
                },
                {
                    "internalType": "uint8",
                    "name": "support",
                    "type": "uint8"
                },
                {
                    "internalType": "uint8",
                    "name": "v",
                    "type": "uint8"
                },
                {
                    "internalType": "bytes32",
                    "name": "r",
                    "type": "bytes32"
                },
                {
                    "internalType": "bytes32",
                    "name": "s",
                    "type": "bytes32"
                }
            ],
            "name": "castVoteBySig",
            "outputs": [
                {
                    "internalType": "uint256",
                    "name": "",
                    "type": "uint256"
                }
            ],
            "stateMutability": "nonpayable",
            "type": "function"
        },
        {
            "inputs": [
                {
                    "internalType": "uint256",
                    "name": "proposalId",
                    "type": "uint256"
                },
                {
                    "internalType": "uint8",
                    "name": "support",
                    "type": "uint8"
                },
                {
                    "internalType": "string",
                    "name": "reason",
                    "type": "string"
                }
            ],
            "name": "castVoteWithReason",
            "outputs": [
                {
                    "internalType": "uint256",
                    "name": "",
                    "type": "uint256"
                }
            ],
            "stateMutability": "nonpayable",
            "type": "function"
        },
        {
            "inputs": [
                {
                    "internalType": "uint256",
                    "name": "proposalId",
                    "type": "uint256"
                },
                {
                    "internalType": "uint8",
                    "name": "support",
                    "type": "uint8"
                },
                {
                    "internalType": "string",
                    "name": "reason",
                    "type": "string"
                },
                {
                    "internalType": "bytes",
                    "name": "params",
                    "type": "bytes"
                }
            ],
            "name": "castVoteWithReasonAndParams",
            "outputs": [
                {
                    "internalType": "uint256",
                    "name": "",
                    "type": "uint256"
                }
            ],
            "stateMutability": "nonpayable",
            "type": "function"
        },
        {
            "inputs": [
                {
                    "internalType": "uint256",
                    "name": "proposalId",
                    "type": "uint256"
                },
                {
                    "internalType": "uint8",
                    "name": "support",
                    "type": "uint8"
                },
                {
                    "internalType": "string",
                    "name": "reason",
                    "type": "string"
                },
                {
                    "internalType": "bytes",
                    "name": "params",
                    "type": "bytes"
                },
                {
                    "internalType": "uint8",
                    "name": "v",
                    "type": "uint8"
                },
                {
                    "internalType": "bytes32",
                    "name": "r",
                    "type": "bytes32"
                },
                {
                    "internalType": "bytes32",
                    "name": "s",
                    "type": "bytes32"
                }
            ],
            "name": "castVoteWithReasonAndParamsBySig",
            "outputs": [
                {
                    "internalType": "uint256",
                    "name": "",
                    "type": "uint256"
                }
            ],
            "stateMutability": "nonpayable",
            "type": "function"
        },
        {
            "inputs": [
                {
                    "internalType": "address[]",
                    "name": "targets",
                    "type": "address[]"
                },
                {
                    "internalType": "uint256[]",
                    "name": "values",
                    "type": "uint256[]"
                },
                {
                    "internalType": "bytes[]",
                    "name": "calldatas",
                    "type": "bytes[]"
                },
                {
                    "internalType": "bytes32",
                    "name": "descriptionHash",
                    "type": "bytes32"
                }
            ],
            "name": "execute",
            "outputs": [
                {
                    "internalType": "uint256",
                    "name": "",
                    "type": "uint256"
                }
            ],
            "stateMutability": "payable",
            "type": "function"
        },
        {
            "inputs": [
                {
                    "internalType": "uint256",
                    "name": "proposalId",
                    "type": "uint256"
                }
            ],
            "name": "execute",
            "outputs": [],
            "stateMutability": "payable",
            "type": "function"
        },
        {
            "inputs": [
                {
                    "internalType": "uint256",
                    "name": "proposalId",
                    "type": "uint256"
                }
            ],
            "name": "getActions",
            "outputs": [
                {
                    "internalType": "address[]",
                    "name": "targets",
                    "type": "address[]"
                },
                {
                    "internalType": "uint256[]",
                    "name": "values",
                    "type": "uint256[]"
                },
                {
                    "internalType": "string[]",
                    "name": "signatures",
                    "type": "string[]"
                },
                {
                    "internalType": "bytes[]",
                    "name": "calldatas",
                    "type": "bytes[]"
                }
            ],
            "stateMutability": "view",
            "type": "function"
        },
        {
            "inputs": [
                {
                    "internalType": "uint256",
                    "name": "proposalId",
                    "type": "uint256"
                },
                {
                    "internalType": "address",
                    "name": "voter",
                    "type": "address"
                }
            ],
            "name": "getReceipt",
            "outputs": [
                {
                    "components": [
                        {
                            "internalType": "bool",
                            "name": "hasVoted",
                            "type": "bool"
                        },
                        {
                            "internalType": "uint8",
                            "name": "support",
                            "type": "uint8"
                        },
                        {
                            "internalType": "uint96",
                            "name": "votes",
                            "type": "uint96"
                        }
                    ],
                    "internalType": "struct IGovernorCompatibilityBravo.Receipt",
                    "name": "",
                    "type": "tuple"
                }
            ],
            "stateMutability": "view",
            "type": "function"
        },
        {
            "inputs": [
                {
                    "internalType": "address",
                    "name": "account",
                    "type": "address"
                },
                {
                    "internalType": "uint256",
                    "name": "blockNumber",
                    "type": "uint256"
                }
            ],
            "name": "getVotes",
            "outputs": [
                {
                    "internalType": "uint256",
                    "name": "",
                    "type": "uint256"
                }
            ],
            "stateMutability": "view",
            "type": "function"
        },
        {
            "inputs": [
                {
                    "internalType": "address",
                    "name": "account",
                    "type": "address"
                },
                {
                    "internalType": "uint256",
                    "name": "blockNumber",
                    "type": "uint256"
                },
                {
                    "internalType": "bytes",
                    "name": "params",
                    "type": "bytes"
                }
            ],
            "name": "getVotesWithParams",
            "outputs": [
                {
                    "internalType": "uint256",
                    "name": "",
                    "type": "uint256"
                }
            ],
            "stateMutability": "view",
            "type": "function"
        },
        {
            "inputs": [
                {
                    "internalType": "uint256",
                    "name": "proposalId",
                    "type": "uint256"
                },
                {
                    "internalType": "address",
                    "name": "account",
                    "type": "address"
                }
            ],
            "name": "hasVoted",
            "outputs": [
                {
                    "internalType": "bool",
                    "name": "",
                    "type": "bool"
                }
            ],
            "stateMutability": "view",
            "type": "function"
        },
        {
            "inputs": [
                {
                    "internalType": "address[]",
                    "name": "targets",
                    "type": "address[]"
                },
                {
                    "internalType": "uint256[]",
                    "name": "values",
                    "type": "uint256[]"
                },
                {
                    "internalType": "bytes[]",
                    "name": "calldatas",
                    "type": "bytes[]"
                },
                {
                    "internalType": "bytes32",
                    "name": "descriptionHash",
                    "type": "bytes32"
                }
            ],
            "name": "hashProposal",
            "outputs": [
                {
                    "internalType": "uint256",
                    "name": "",
                    "type": "uint256"
                }
            ],
            "stateMutability": "pure",
            "type": "function"
        },
        {
            "inputs": [],
            "name": "name",
            "outputs": [
                {
                    "internalType": "string",
                    "name": "",
                    "type": "string"
                }
            ],
            "stateMutability": "view",
            "type": "function"
        },
        {
            "inputs": [
                {
                    "internalType": "address",
                    "name": "",
                    "type": "address"
                },
                {
                    "internalType": "address",
                    "name": "",
                    "type": "address"
                },
                {
                    "internalType": "uint256[]",
                    "name": "",
                    "type": "uint256[]"
                },
                {
                    "internalType": "uint256[]",
                    "name": "",
                    "type": "uint256[]"
                },
                {
                    "internalType": "bytes",
                    "name": "",
                    "type": "bytes"
                }
            ],
            "name": "onERC1155BatchReceived",
            "outputs": [
                {
                    "internalType": "bytes4",
                    "name": "",
                    "type": "bytes4"
                }
            ],
            "stateMutability": "nonpayable",
            "type": "function"
        },
        {
            "inputs": [
                {
                    "internalType": "address",
                    "name": "",
                    "type": "address"
                },
                {
                    "internalType": "address",
                    "name": "",
                    "type": "address"
                },
                {
                    "internalType": "uint256",
                    "name": "",
                    "type": "uint256"
                },
                {
                    "internalType": "uint256",
                    "name": "",
                    "type": "uint256"
                },
                {
                    "internalType": "bytes",
                    "name": "",
                    "type": "bytes"
                }
            ],
            "name": "onERC1155Received",
            "outputs": [
                {
                    "internalType": "bytes4",
                    "name": "",
                    "type": "bytes4"
                }
            ],
            "stateMutability": "nonpayable",
            "type": "function"
        },
        {
            "inputs": [
                {
                    "internalType": "address",
                    "name": "",
                    "type": "address"
                },
                {
                    "internalType": "address",
                    "name": "",
                    "type": "address"
                },
                {
                    "internalType": "uint256",
                    "name": "",
                    "type": "uint256"
                },
                {
                    "internalType": "bytes",
                    "name": "",
                    "type": "bytes"
                }
            ],
            "name": "onERC721Received",
            "outputs": [
                {
                    "internalType": "bytes4",
                    "name": "",
                    "type": "bytes4"
                }
            ],
            "stateMutability": "nonpayable",
            "type": "function"
        },
        {
            "inputs": [
                {
                    "internalType": "uint256",
                    "name": "proposalId",
                    "type": "uint256"
                }
            ],
            "name": "proposalDeadline",
            "outputs": [
                {
                    "internalType": "uint256",
                    "name": "",
                    "type": "uint256"
                }
            ],
            "stateMutability": "view",
            "type": "function"
        },
        {
            "inputs": [
                {
                    "internalType": "uint256",
                    "name": "proposalId",
                    "type": "uint256"
                }
            ],
            "name": "proposalEta",
            "outputs": [
                {
                    "internalType": "uint256",
                    "name": "",
                    "type": "uint256"
                }
            ],
            "stateMutability": "view",
            "type": "function"
        },
        {
            "inputs": [
                {
                    "internalType": "uint256",
                    "name": "proposalId",
                    "type": "uint256"
                }
            ],
            "name": "proposalSnapshot",
            "outputs": [
                {
                    "internalType": "uint256",
                    "name": "",
                    "type": "uint256"
                }
            ],
            "stateMutability": "view",
            "type": "function"
        },
        {
            "inputs": [],
            "name": "proposalThreshold",
            "outputs": [
                {
                    "internalType": "uint256",
                    "name": "",
                    "type": "uint256"
                }
            ],
            "stateMutability": "pure",
            "type": "function"
        },
        {
            "inputs": [
                {
                    "internalType": "uint256",
                    "name": "proposalId",
                    "type": "uint256"
                }
            ],
            "name": "proposals",
            "outputs": [
                {
                    "internalType": "uint256",
                    "name": "id",
                    "type": "uint256"
                },
                {
                    "internalType": "address",
                    "name": "proposer",
                    "type": "address"
                },
                {
                    "internalType": "uint256",
                    "name": "eta",
                    "type": "uint256"
                },
                {
                    "internalType": "uint256",
                    "name": "startBlock",
                    "type": "uint256"
                },
                {
                    "internalType": "uint256",
                    "name": "endBlock",
                    "type": "uint256"
                },
                {
                    "internalType": "uint256",
                    "name": "forVotes",
                    "type": "uint256"
                },
                {
                    "internalType": "uint256",
                    "name": "againstVotes",
                    "type": "uint256"
                },
                {
                    "internalType": "uint256",
                    "name": "abstainVotes",
                    "type": "uint256"
                },
                {
                    "internalType": "bool",
                    "name": "canceled",
                    "type": "bool"
                },
                {
                    "internalType": "bool",
                    "name": "executed",
                    "type": "bool"
                }
            ],
            "stateMutability": "view",
            "type": "function"
        },
        {
            "inputs": [
                {
                    "internalType": "address[]",
                    "name": "targets",
                    "type": "address[]"
                },
                {
                    "internalType": "uint256[]",
                    "name": "values",
                    "type": "uint256[]"
                },
                {
                    "internalType": "bytes[]",
                    "name": "calldatas",
                    "type": "bytes[]"
                },
                {
                    "internalType": "string",
                    "name": "description",
                    "type": "string"
                }
            ],
            "name": "propose",
            "outputs": [
                {
                    "internalType": "uint256",
                    "name": "",
                    "type": "uint256"
                }
            ],
            "stateMutability": "nonpayable",
            "type": "function"
        },
        {
            "inputs": [
                {
                    "internalType": "address[]",
                    "name": "targets",
                    "type": "address[]"
                },
                {
                    "internalType": "uint256[]",
                    "name": "values",
                    "type": "uint256[]"
                },
                {
                    "internalType": "string[]",
                    "name": "signatures",
                    "type": "string[]"
                },
                {
                    "internalType": "bytes[]",
                    "name": "calldatas",
                    "type": "bytes[]"
                },
                {
                    "internalType": "string",
                    "name": "description",
                    "type": "string"
                }
            ],
            "name": "propose",
            "outputs": [
                {
                    "internalType": "uint256",
                    "name": "",
                    "type": "uint256"
                }
            ],
            "stateMutability": "nonpayable",
            "type": "function"
        },
        {
            "inputs": [
                {
                    "internalType": "address[]",
                    "name": "targets",
                    "type": "address[]"
                },
                {
                    "internalType": "uint256[]",
                    "name": "values",
                    "type": "uint256[]"
                },
                {
                    "internalType": "bytes[]",
                    "name": "calldatas",
                    "type": "bytes[]"
                },
                {
                    "internalType": "bytes32",
                    "name": "descriptionHash",
                    "type": "bytes32"
                }
            ],
            "name": "queue",
            "outputs": [
                {
                    "internalType": "uint256",
                    "name": "",
                    "type": "uint256"
                }
            ],
            "stateMutability": "nonpayable",
            "type": "function"
        },
        {
            "inputs": [
                {
                    "internalType": "uint256",
                    "name": "proposalId",
                    "type": "uint256"
                }
            ],
            "name": "queue",
            "outputs": [],
            "stateMutability": "nonpayable",
            "type": "function"
        },
        {
            "inputs": [
                {
                    "internalType": "uint256",
                    "name": "blockNumber",
                    "type": "uint256"
                }
            ],
            "name": "quorum",
            "outputs": [
                {
                    "internalType": "uint256",
                    "name": "",
                    "type": "uint256"
                }
            ],
            "stateMutability": "view",
            "type": "function"
        },
        {
            "inputs": [],
            "name": "quorumDenominator",
            "outputs": [
                {
                    "internalType": "uint256",
                    "name": "",
                    "type": "uint256"
                }
            ],
            "stateMutability": "view",
            "type": "function"
        },
        {
            "inputs": [
                {
                    "internalType": "uint256",
                    "name": "blockNumber",
                    "type": "uint256"
                }
            ],
            "name": "quorumNumerator",
            "outputs": [
                {
                    "internalType": "uint256",
                    "name": "",
                    "type": "uint256"
                }
            ],
            "stateMutability": "view",
            "type": "function"
        },
        {
            "inputs": [],
            "name": "quorumNumerator",
            "outputs": [
                {
                    "internalType": "uint256",
                    "name": "",
                    "type": "uint256"
                }
            ],
            "stateMutability": "view",
            "type": "function"
        },
        {
            "inputs": [],
            "name": "quorumVotes",
            "outputs": [
                {
                    "internalType": "uint256",
                    "name": "",
                    "type": "uint256"
                }
            ],
            "stateMutability": "view",
            "type": "function"
        },
        {
            "inputs": [
                {
                    "internalType": "address",
                    "name": "target",
                    "type": "address"
                },
                {
                    "internalType": "uint256",
                    "name": "value",
                    "type": "uint256"
                },
                {
                    "internalType": "bytes",
                    "name": "data",
                    "type": "bytes"
                }
            ],
            "name": "relay",
            "outputs": [],
            "stateMutability": "payable",
            "type": "function"
        },
        {
            "inputs": [
                {
                    "internalType": "uint256",
                    "name": "proposalId",
                    "type": "uint256"
                }
            ],
            "name": "state",
            "outputs": [
                {
                    "internalType": "enum IGovernor.ProposalState",
                    "name": "",
                    "type": "uint8"
                }
            ],
            "stateMutability": "view",
            "type": "function"
        },
        {
            "inputs": [
                {
                    "internalType": "bytes4",
                    "name": "interfaceId",
                    "type": "bytes4"
                }
            ],
            "name": "supportsInterface",
            "outputs": [
                {
                    "internalType": "bool",
                    "name": "",
                    "type": "bool"
                }
            ],
            "stateMutability": "view",
            "type": "function"
        },
        {
            "inputs": [],
            "name": "timelock",
            "outputs": [
                {
                    "internalType": "address",
                    "name": "",
                    "type": "address"
                }
            ],
            "stateMutability": "view",
            "type": "function"
        },
        {
            "inputs": [],
            "name": "token",
            "outputs": [
                {
                    "internalType": "contract IVotes",
                    "name": "",
                    "type": "address"
                }
            ],
            "stateMutability": "view",
            "type": "function"
        },
        {
            "inputs": [
                {
                    "internalType": "uint256",
                    "name": "newQuorumNumerator",
                    "type": "uint256"
                }
            ],
            "name": "updateQuorumNumerator",
            "outputs": [],
            "stateMutability": "nonpayable",
            "type": "function"
        },
        {
            "inputs": [
                {
                    "internalType": "contract TimelockController",
                    "name": "newTimelock",
                    "type": "address"
                }
            ],
            "name": "updateTimelock",
            "outputs": [],
            "stateMutability": "nonpayable",
            "type": "function"
        },
        {
            "inputs": [],
            "name": "version",
            "outputs": [
                {
                    "internalType": "string",
                    "name": "",
                    "type": "string"
                }
            ],
            "stateMutability": "view",
            "type": "function"
        },
        {
            "inputs": [],
            "name": "votingDelay",
            "outputs": [
                {
                    "internalType": "uint256",
                    "name": "",
                    "type": "uint256"
                }
            ],
            "stateMutability": "view",
            "type": "function"
        },
        {
            "inputs": [],
            "name": "votingPeriod",
            "outputs": [
                {
                    "internalType": "uint256",
                    "name": "",
                    "type": "uint256"
                }
            ],
            "stateMutability": "view",
            "type": "function"
        },
        {
            "stateMutability": "payable",
            "type": "receive"
        }
    ],
    "bytecode": "6101606040523480156200001257600080fd5b5060405162005677380380620056778339810160408190526200003591620006ba565b8383866040518060400160405280600681526020016510985b1b1bdd60d21b81525080620000686200013f60201b60201c565b815160209283012081519183019190912060e08290526101008190524660a0818152604080517f8b73c3c69bb8fe3d512ecc4cf759cc79239f7b179b0ffacaa9a75d522b39400f818801819052818301969096526060810194909452608080850193909352308483018190528151808603909301835260c094850190915281519190950120905291909152610120526000620001058282620007b7565b50506001600160a01b0316610140526200011f816200015a565b506200012b81620002d6565b50600991909155600a5550620008ab915050565b6040805180820190915260018152603160f81b602082015290565b6064811115620001e35760405162461bcd60e51b815260206004820152604360248201527f476f7665726e6f72566f74657351756f72756d4672616374696f6e3a2071756f60448201527f72756d4e756d657261746f72206f7665722071756f72756d44656e6f6d696e616064820152623a37b960e91b608482015260a4015b60405180910390fd5b6000620001ef6200033f565b90508015801590620002015750600654155b156200027c5760066000016040518060400160405280600063ffffffff1681526020016200023a846200037760201b62001fa31760201c565b6001600160e01b0390811690915282546001810184556000938452602093849020835194909301519091166401000000000263ffffffff909316929092179101555b62000297826006620003e660201b620020101790919060201c565b505060408051828152602081018490527f0553476bf02ef2726e8ce5ced78d63e26e602e4a2257b1f559418e24b4633997910160405180910390a15050565b600754604080516001600160a01b03928316815291831660208301527f08f74ea46ef7894f65eabfb5e6e695de773a000b47c529ab559178069b226401910160405180910390a1600780546001600160a01b0319166001600160a01b0392909216919091179055565b6006546000901562000370576200036260066200043960201b620020461760201c565b6001600160e01b0316905090565b5060055490565b60006001600160e01b03821115620003e25760405162461bcd60e51b815260206004820152602760248201527f53616665436173743a2076616c756520646f65736e27742066697420696e20326044820152663234206269747360c81b6064820152608401620001da565b5090565b600080620004238460000162000407436200048760201b620020841760201c565b6200041d866200037760201b62001fa31760201c565b620004ee565b6001600160e01b03918216969116945092505050565b805460009080156200047d5762000465836200045760018462000883565b600091825260209091200190565b5464010000000090046001600160e01b031662000480565b60005b9392505050565b600063ffffffff821115620003e25760405162461bcd60e51b815260206004820152602660248201527f53616665436173743a2076616c756520646f65736e27742066697420696e203360448201526532206269747360d01b6064820152608401620001da565b8254600090819080156200064357600062000510876200045760018562000883565b60408051808201909152905463ffffffff8082168084526401000000009092046001600160e01b031660208401529192509087161015620005945760405162461bcd60e51b815260206004820152601760248201527f436865636b706f696e743a20696e76616c6964206b65790000000000000000006044820152606401620001da565b805163ffffffff808816911603620005e25784620005b9886200045760018662000883565b80546001600160e01b03929092166401000000000263ffffffff90921691909117905562000632565b6040805180820190915263ffffffff80881682526001600160e01b0380881660208085019182528b54600181018d5560008d81529190912094519151909216640100000000029216919091179101555b602001519250839150620006999050565b50506040805180820190915263ffffffff80851682526001600160e01b0380851660208085019182528854600181018a5560008a8152918220955192519093166401000000000291909316179201919091559050815b935093915050565b6001600160a01b0381168114620006b757600080fd5b50565b600080600080600060a08688031215620006d357600080fd5b8551620006e081620006a1565b6020870151909550620006f381620006a1565b6040870151606088015160809098015196999198509695945092505050565b634e487b7160e01b600052604160045260246000fd5b600181811c908216806200073d57607f821691505b6020821081036200075e57634e487b7160e01b600052602260045260246000fd5b50919050565b601f821115620007b257600081815260208120601f850160051c810160208610156200078d5750805b601f850160051c820191505b81811015620007ae5782815560010162000799565b5050505b505050565b81516001600160401b03811115620007d357620007d362000712565b620007eb81620007e4845462000728565b8462000764565b602080601f8311600181146200082357600084156200080a5750858301515b600019600386901b1c1916600185901b178555620007ae565b600085815260208120601f198616915b82811015620008545788860151825594840194600190910190840162000833565b5085821015620008735787850151600019600388901b60f8161c191681555b5050505050600190811b01905550565b81810381811115620008a557634e487b7160e01b600052601160045260246000fd5b92915050565b60805160a05160c05160e051610100516101205161014051614d6362000914600039600081816109c0015281816129820152612b7201526000612e9101526000612ee001526000612ebb01526000612e1401526000612e3e01526000612e680152614d636000f3fe6080604052600436106102765760003560e01c80637b3c71d31161014f578063c59057e4116100c1578063e23a9a521161007a578063e23a9a5214610878578063eb9019d414610942578063f23a6e6114610962578063f8ce560a1461098e578063fc0c546a146109ae578063fe0d94c1146109e257600080fd5b8063c59057e41461076c578063d33219b41461078c578063da95691a146107be578063dd4e2ba5146107de578063ddf0b00914610824578063deaaa7cc1461084457600080fd5b8063a890c91011610113578063a890c910146106b9578063ab58fb8e146106d9578063b58131b0146106f9578063bc197c811461070d578063c01f9e3714610739578063c28bc2fa1461075957600080fd5b80637b3c71d3146106305780637d5e81e21461065057806397c3d334146106705780639a802a6d14610684578063a7713a70146106a457600080fd5b80632fe3e261116101e857806340e58ee5116101ac57806340e58ee51461053c578063438596321461055c57806354fd4d50146105a657806356781388146105d05780635f398a14146105f057806360c4247f1461061057600080fd5b80632fe3e26114610476578063328dd982146104aa5780633932abb1146104da5780633bccf4fd146104ef5780633e4f49e61461050f57600080fd5b806306fdde031161023a57806306fdde03146103a8578063150b7a02146103ca578063160cbed71461040e57806324bc1a641461042e5780632656227d146104435780632d63f6931461045657600080fd5b8063013cf08b1461029e57806301ffc9a71461031957806302a251a314610349578063034201811461036857806306f3f9e61461038857600080fd5b3661029957306102846109f5565b6001600160a01b03161461029757600080fd5b005b600080fd5b3480156102aa57600080fd5b506102be6102b9366004613c73565b610a0e565b604080519a8b526001600160a01b0390991660208b0152978901969096526060880194909452608087019290925260a086015260c085015260e084015215156101008301521515610120820152610140015b60405180910390f35b34801561032557600080fd5b50610339610334366004613c8c565b610ab7565b6040519015158152602001610310565b34801561035557600080fd5b50600a545b604051908152602001610310565b34801561037457600080fd5b5061035a610383366004613dc2565b610ac8565b34801561039457600080fd5b506102976103a3366004613c73565b610bc0565b3480156103b457600080fd5b506103bd610c53565b6040516103109190613eb8565b3480156103d657600080fd5b506103f56103e5366004613ee0565b630a85bd0160e11b949350505050565b6040516001600160e01b03199091168152602001610310565b34801561041a57600080fd5b5061035a6104293660046140bc565b610ce5565b34801561043a57600080fd5b5061035a610ee6565b61035a6104513660046140bc565b610ef6565b34801561046257600080fd5b5061035a610471366004613c73565b610fe3565b34801561048257600080fd5b5061035a7fb3b3f3b703cd84ce352197dcff232b1b5d3cfb2025ce47cf04742d0651f1af8881565b3480156104b657600080fd5b506104ca6104c5366004613c73565b61101a565b6040516103109493929190614214565b3480156104e657600080fd5b5060095461035a565b3480156104fb57600080fd5b5061035a61050a366004614261565b6112ab565b34801561051b57600080fd5b5061052f61052a366004613c73565b611321565b60405161031091906142c5565b34801561054857600080fd5b50610297610557366004613c73565b61132c565b34801561056857600080fd5b506103396105773660046142ed565b60008281526004602090815260408083206001600160a01b038516845260080190915290205460ff1692915050565b3480156105b257600080fd5b506040805180820190915260018152603160f81b60208201526103bd565b3480156105dc57600080fd5b5061035a6105eb36600461431d565b61163e565b3480156105fc57600080fd5b5061035a61060b366004614349565b611667565b34801561061c57600080fd5b5061035a61062b366004613c73565b6116b1565b34801561063c57600080fd5b5061035a61064b3660046143cc565b611748565b34801561065c57600080fd5b5061035a61066b366004614425565b61179a565b34801561067c57600080fd5b50606461035a565b34801561069057600080fd5b5061035a61069f3660046144c5565b6117b1565b3480156106b057600080fd5b5061035a6117c8565b3480156106c557600080fd5b506102976106d436600461451d565b6117f2565b3480156106e557600080fd5b5061035a6106f4366004613c73565b611879565b34801561070557600080fd5b50600061035a565b34801561071957600080fd5b506103f561072836600461453a565b63bc197c8160e01b95945050505050565b34801561074557600080fd5b5061035a610754366004613c73565b611913565b6102976107673660046145cd565b611942565b34801561077857600080fd5b5061035a6107873660046140bc565b611a51565b34801561079857600080fd5b506007546001600160a01b03165b6040516001600160a01b039091168152602001610310565b3480156107ca57600080fd5b5061035a6107d936600461468f565b611a8b565b3480156107ea57600080fd5b5060408051808201909152601a81527f737570706f72743d627261766f2671756f72756d3d627261766f00000000000060208201526103bd565b34801561083057600080fd5b5061029761083f366004613c73565b611ab0565b34801561085057600080fd5b5061035a7f150214d74d59b7d1e90c73fc22ef3d991dd0a76b046543d4d80ab92d2a50328f81565b34801561088457600080fd5b506109126108933660046142ed565b60408051606081018252600080825260208201819052918101919091525060009182526004602090815260408084206001600160a01b0393909316845260089092018152918190208151606081018352905460ff8082161515835261010082041693820193909352620100009092046001600160601b03169082015290565b6040805182511515815260208084015160ff1690820152918101516001600160601b031690820152606001610310565b34801561094e57600080fd5b5061035a61095d366004614730565b611d1e565b34801561096e57600080fd5b506103f561097d36600461475c565b63f23a6e6160e01b95945050505050565b34801561099a57600080fd5b5061035a6109a9366004613c73565b611d2a565b3480156109ba57600080fd5b506107a67f000000000000000000000000000000000000000000000000000000000000000081565b6102976109f0366004613c73565b611d35565b6000610a096007546001600160a01b031690565b905090565b8060008080808080808080610a228a611879565b9750610a2d8b610fe3565b9650610a388b611913565b60008c815260046020526040812080546005820154600683015460078401546001600160a01b039093169e50949a509850929650919450610a788d611321565b90506002816007811115610a8e57610a8e6142af565b1493506007816007811115610aa557610aa56142af565b14925050509193959799509193959799565b6000610ac2826120e9565b92915050565b600080610b6c610b647fb3b3f3b703cd84ce352197dcff232b1b5d3cfb2025ce47cf04742d0651f1af888c8c8c8c604051610b049291906147c4565b60405180910390208b80519060200120604051602001610b49959493929190948552602085019390935260ff9190911660408401526060830152608082015260a00190565b6040516020818303038152906040528051906020012061210e565b86868661215c565b9050610bb28a828b8b8b8080601f0160208091040260200160405190810160405280939291908181526020018383808284376000920191909152508d925061217a915050565b9a9950505050505050505050565b610bc86109f5565b6001600160a01b0316336001600160a01b031614610c015760405162461bcd60e51b8152600401610bf8906147d4565b60405180910390fd5b30610c0a6109f5565b6001600160a01b031614610c475760008036604051610c2a9291906147c4565b604051809103902090505b80610c4060026122df565b03610c3557505b610c508161235e565b50565b606060008054610c629061480b565b80601f0160208091040260200160405190810160405280929190818152602001828054610c8e9061480b565b8015610cdb5780601f10610cb057610100808354040283529160200191610cdb565b820191906000526020600020905b815481529060010190602001808311610cbe57829003601f168201915b5050505050905090565b600080610cf486868686611a51565b90506004610d0182611321565b6007811115610d1257610d126142af565b14610d2f5760405162461bcd60e51b8152600401610bf890614845565b6007546040805163793d064960e11b815290516000926001600160a01b03169163f27a0c929160048083019260209291908290030181865afa158015610d79573d6000803e3d6000fd5b505050506040513d601f19601f82011682018060405250810190610d9d9190614886565b60075460405163b1c5f42760e01b81529192506001600160a01b03169063b1c5f42790610dd7908a908a908a906000908b9060040161489f565b602060405180830381865afa158015610df4573d6000803e3d6000fd5b505050506040513d601f19601f82011682018060405250810190610e189190614886565b6000838152600860205260408082209290925560075491516308f2a0bb60e41b81526001600160a01b0390921691638f2a0bb091610e63918b918b918b91908b9089906004016148ed565b600060405180830381600087803b158015610e7d57600080fd5b505af1158015610e91573d6000803e3d6000fd5b505050507f9a2e42fd6722813d69113e7d0079d3d940171428df7373df9c7f7617cfda2892828242610ec3919061495b565b604080519283526020830191909152015b60405180910390a15095945050505050565b6000610a096109a960014361496e565b600080610f0586868686611a51565b90506000610f1282611321565b90506004816007811115610f2857610f286142af565b1480610f4557506005816007811115610f4357610f436142af565b145b610f615760405162461bcd60e51b8152600401610bf890614845565b600082815260016020818152604092839020600201805460ff191690921790915590518381527f712ae1383f79ac853f8d882153778e0260ef8f03b504e2866e0593e04d2b291f910160405180910390a1610fbf82888888886124aa565b610fcc828888888861254c565b610fd98288888888612559565b5095945050505050565b60008181526001602090815260408083208151928301909152546001600160401b0316908190525b6001600160401b031692915050565b6060806060806000600460008781526020019081526020016000209050806001018160020182600301836004018380548060200260200160405190810160405280929190818152602001828054801561109c57602002820191906000526020600020905b81546001600160a01b0316815260019091019060200180831161107e575b50505050509350828054806020026020016040519081016040528092919081815260200182805480156110ee57602002820191906000526020600020905b8154815260200190600101908083116110da575b5050505050925081805480602002602001604051908101604052809291908181526020016000905b828210156111c25783829060005260206000200180546111359061480b565b80601f01602080910402602001604051908101604052809291908181526020018280546111619061480b565b80156111ae5780601f10611183576101008083540402835291602001916111ae565b820191906000526020600020905b81548152906001019060200180831161119157829003601f168201915b505050505081526020019060010190611116565b50505050915080805480602002602001604051908101604052809291908181526020016000905b828210156112955783829060005260206000200180546112089061480b565b80601f01602080910402602001604051908101604052809291908181526020018280546112349061480b565b80156112815780601f1061125657610100808354040283529160200191611281565b820191906000526020600020905b81548152906001019060200180831161126457829003601f168201915b5050505050815260200190600101906111e9565b5050505090509450945094509450509193509193565b604080517f150214d74d59b7d1e90c73fc22ef3d991dd0a76b046543d4d80ab92d2a50328f602082015290810186905260ff8516606082015260009081906112f990610b6490608001610b49565b905061131687828860405180602001604052806000815250612592565b979650505050505050565b6000610ac2826125b5565b600081815260046020526040902080546001600160a01b0316336001600160a01b03161480611374575060008154611372906001600160a01b031661095d60014361496e565b105b6113d05760405162461bcd60e51b815260206004820152602760248201527f476f7665726e6f72427261766f3a2070726f706f7365722061626f76652074686044820152661c995cda1bdb1960ca1b6064820152608401610bf8565b6116398160010180548060200260200160405190810160405280929190818152602001828054801561142b57602002820191906000526020600020905b81546001600160a01b0316815260019091019060200180831161140d575b50505050508260020180548060200260200160405190810160405280929190818152602001828054801561147e57602002820191906000526020600020905b81548152602001906001019080831161146a575b505050505061162f84600301805480602002602001604051908101604052809291908181526020016000905b828210156115565783829060005260206000200180546114c99061480b565b80601f01602080910402602001604051908101604052809291908181526020018280546114f59061480b565b80156115425780601f1061151757610100808354040283529160200191611542565b820191906000526020600020905b81548152906001019060200180831161152557829003601f168201915b5050505050815260200190600101906114aa565b50505060048701805460408051602080840282018101909252828152935060009084015b828210156116265783829060005260206000200180546115999061480b565b80601f01602080910402602001604051908101604052809291908181526020018280546115c59061480b565b80156116125780601f106115e757610100808354040283529160200191611612565b820191906000526020600020905b8154815290600101906020018083116115f557829003601f168201915b50505050508152602001906001019061157a565b505050506126ff565b8460090154612831565b505050565b60008033905061165f84828560405180602001604052806000815250612592565b949350505050565b60008033905061131687828888888080601f0160208091040260200160405190810160405280939291908181526020018383808284376000920191909152508a925061217a915050565b6006546000908082036116c8575050600554919050565b600060066116d760018461496e565b815481106116e7576116e7614981565b60009182526020918290206040805180820190915291015463ffffffff8116808352600160201b9091046001600160e01b0316928201929092529150841061173d57602001516001600160e01b03169392505050565b61165f60068561283f565b60008033905061179086828787878080601f01602080910402602001604051908101604052809392919081815260200183838082843760009201919091525061259292505050565b9695505050505050565b60006117a8858585856128f1565b95945050505050565b60006117be848484612959565b90505b9392505050565b600654600090156117eb576117dd6006612046565b6001600160e01b0316905090565b5060055490565b6117fa6109f5565b6001600160a01b0316336001600160a01b03161461182a5760405162461bcd60e51b8152600401610bf8906147d4565b306118336109f5565b6001600160a01b03161461187057600080366040516118539291906147c4565b604051809103902090505b8061186960026122df565b0361185e57505b610c50816129ef565b60075460008281526008602052604080822054905163d45c443560e01b81526004810191909152909182916001600160a01b039091169063d45c443590602401602060405180830381865afa1580156118d6573d6000803e3d6000fd5b505050506040513d601f19601f820116820180604052508101906118fa9190614886565b90508060011461190a57806117c1565b60009392505050565b60008181526001602081815260408084208151928301909152909101546001600160401b03169081905261100b565b61194a6109f5565b6001600160a01b0316336001600160a01b03161461197a5760405162461bcd60e51b8152600401610bf8906147d4565b306119836109f5565b6001600160a01b0316146119c057600080366040516119a39291906147c4565b604051809103902090505b806119b960026122df565b036119ae57505b600080856001600160a01b03168585856040516119de9291906147c4565b60006040518083038185875af1925050503d8060008114611a1b576040519150601f19603f3d011682016040523d82523d6000602084013e611a20565b606091505b5091509150611a488282604051806060016040528060288152602001614d0660289139612a58565b50505050505050565b600084848484604051602001611a6a9493929190614997565b60408051601f19818403018152919052805160209091012095945050505050565b6000611a9b338787878787612a71565b6117908686611aaa87876126ff565b8561179a565b600081815260046020908152604091829020600181018054845181850281018501909552808552919361163993909290830182828015611b1957602002820191906000526020600020905b81546001600160a01b03168152600190910190602001808311611afb575b505050505082600201805480602002602001604051908101604052809291908181526020018280548015611b6c57602002820191906000526020600020905b815481526020019060010190808311611b58575b5050505050611d1484600301805480602002602001604051908101604052809291908181526020016000905b82821015611c44578382906000526020600020018054611bb79061480b565b80601f0160208091040260200160405190810160405280929190818152602001828054611be39061480b565b8015611c305780601f10611c0557610100808354040283529160200191611c30565b820191906000526020600020905b815481529060010190602001808311611c1357829003601f168201915b505050505081526020019060010190611b98565b50505060048701805460408051602080840282018101909252828152935060009084015b82821015611626578382906000526020600020018054611c879061480b565b80601f0160208091040260200160405190810160405280929190818152602001828054611cb39061480b565b8015611d005780601f10611cd557610100808354040283529160200191611d00565b820191906000526020600020905b815481529060010190602001808311611ce357829003601f168201915b505050505081526020019060010190611c68565b8460090154610ce5565b60006117c18383612b2e565b6000610ac282612b4f565b600081815260046020908152604091829020600181018054845181850281018501909552808552919361163993909290830182828015611d9e57602002820191906000526020600020905b81546001600160a01b03168152600190910190602001808311611d80575b505050505082600201805480602002602001604051908101604052809291908181526020018280548015611df157602002820191906000526020600020905b815481526020019060010190808311611ddd575b5050505050611f9984600301805480602002602001604051908101604052809291908181526020016000905b82821015611ec9578382906000526020600020018054611e3c9061480b565b80601f0160208091040260200160405190810160405280929190818152602001828054611e689061480b565b8015611eb55780601f10611e8a57610100808354040283529160200191611eb5565b820191906000526020600020905b815481529060010190602001808311611e9857829003601f168201915b505050505081526020019060010190611e1d565b50505060048701805460408051602080840282018101909252828152935060009084015b82821015611626578382906000526020600020018054611f0c9061480b565b80601f0160208091040260200160405190810160405280929190818152602001828054611f389061480b565b8015611f855780601f10611f5a57610100808354040283529160200191611f85565b820191906000526020600020905b815481529060010190602001808311611f6857829003601f168201915b505050505081526020019060010190611eed565b8460090154610ef6565b60006001600160e01b0382111561200c5760405162461bcd60e51b815260206004820152602760248201527f53616665436173743a2076616c756520646f65736e27742066697420696e20326044820152663234206269747360c81b6064820152608401610bf8565b5090565b60008061202e8461202043612084565b61202986611fa3565b612bf9565b6001600160e01b0391821693501690505b9250929050565b8054600090801561190a5761206e8361206060018461496e565b600091825260209091200190565b54600160201b90046001600160e01b03166117c1565b600063ffffffff82111561200c5760405162461bcd60e51b815260206004820152602660248201527f53616665436173743a2076616c756520646f65736e27742066697420696e203360448201526532206269747360d01b6064820152608401610bf8565b60006001600160e01b03198216636e665ced60e01b1480610ac25750610ac282612d9c565b6000610ac261211b612e07565b8360405161190160f01b6020820152602281018390526042810182905260009060620160405160208183030381529060405280519060200120905092915050565b600080600061216d87878787612f2e565b91509150610fd981612ff2565b600085815260016020819052604082209061219488611321565b60078111156121a5576121a56142af565b146121fe5760405162461bcd60e51b815260206004820152602360248201527f476f7665726e6f723a20766f7465206e6f742063757272656e746c792061637460448201526269766560e81b6064820152608401610bf8565b604080516020810190915281546001600160401b03169081905260009061222790889086612959565b9050612236888888848861313c565b835160000361228b57866001600160a01b03167fb8e138887d0aa13bab447e82de9d5c1777041ecd21ca36ba824ff1e6c07ddda48988848960405161227e94939291906149e2565b60405180910390a2611316565b866001600160a01b03167fe2babfbac5889a709b63bb7f598b324e08bc5a4fb9ec647fb3cbc9ec07eb871289888489896040516122cc959493929190614a0a565b60405180910390a2979650505050505050565b60006122fa8254600f81810b600160801b909204900b131590565b1561231857604051631ed9509560e11b815260040160405180910390fd5b508054600f0b6000818152600180840160205260408220805492905583546fffffffffffffffffffffffffffffffff191692016001600160801b03169190911790915590565b60648111156123e15760405162461bcd60e51b815260206004820152604360248201527f476f7665726e6f72566f74657351756f72756d4672616374696f6e3a2071756f60448201527f72756d4e756d657261746f72206f7665722071756f72756d44656e6f6d696e616064820152623a37b960e91b608482015260a401610bf8565b60006123eb6117c8565b905080158015906123fc5750600654155b156124605760408051808201909152600081526006906020810161241f84611fa3565b6001600160e01b039081169091528254600181018455600093845260209384902083519490930151909116600160201b0263ffffffff909316929092179101555b61246b600683612010565b505060408051828152602081018490527f0553476bf02ef2726e8ce5ced78d63e26e602e4a2257b1f559418e24b4633997910160405180910390a15050565b306124b36109f5565b6001600160a01b0316146125455760005b845181101561254357306001600160a01b03168582815181106124e9576124e9614981565b60200260200101516001600160a01b0316036125335761253383828151811061251457612514614981565b60200260200101518051906020012060026132d990919063ffffffff16565b61253c81614a50565b90506124c4565b505b5050505050565b6125458585858585613315565b306125626109f5565b6001600160a01b03161461254557600254600f81810b600160801b909204900b1315612545576000600255612545565b60006117a8858585856125b060408051602081019091526000815290565b61217a565b6000806125c183613389565b905060048160078111156125d7576125d76142af565b146125e25792915050565b600083815260086020526040902054806125fd575092915050565b600754604051632ab0f52960e01b8152600481018390526001600160a01b0390911690632ab0f52990602401602060405180830381865afa158015612646573d6000803e3d6000fd5b505050506040513d601f19601f8201168201806040525081019061266a9190614a69565b15612679575060079392505050565b600754604051632c258a9f60e11b8152600481018390526001600160a01b039091169063584b153e90602401602060405180830381865afa1580156126c2573d6000803e3d6000fd5b505050506040513d601f19601f820116820180604052508101906126e69190614a69565b156126f5575060059392505050565b5060029392505050565b6060600082516001600160401b0381111561271c5761271c613d0d565b60405190808252806020026020018201604052801561274f57816020015b606081526020019060019003908161273a5790505b50905060005b84518110156128295784818151811061277057612770614981565b6020026020010151516000146127e05784818151811061279257612792614981565b6020026020010151805190602001208482815181106127b3576127b3614981565b60200260200101516040516020016127cc929190614a8b565b6040516020818303038152906040526127fb565b8381815181106127f2576127f2614981565b60200260200101515b82828151811061280d5761280d614981565b60200260200101819052508061282290614a50565b9050612755565b509392505050565b60006117a88585858561349b565b60004382106128905760405162461bcd60e51b815260206004820181905260248201527f436865636b706f696e74733a20626c6f636b206e6f7420796574206d696e65646044820152606401610bf8565b600061289b83612084565b845490915060006128ae8684838561354d565b905080156128db576128c58661206060018461496e565b54600160201b90046001600160e01b03166128de565b60005b6001600160e01b03169695505050505050565b600061294d33868686516001600160401b0381111561291257612912613d0d565b60405190808252806020026020018201604052801561294557816020015b60608152602001906001900390816129305790505b508787612a71565b6117a8858585856135a3565b604051630748d63560e31b81526001600160a01b038481166004830152602482018490526000917f000000000000000000000000000000000000000000000000000000000000000090911690633a46b1a890604401602060405180830381865afa1580156129cb573d6000803e3d6000fd5b505050506040513d601f19601f820116820180604052508101906117be9190614886565b600754604080516001600160a01b03928316815291831660208301527f08f74ea46ef7894f65eabfb5e6e695de773a000b47c529ab559178069b226401910160405180910390a1600780546001600160a01b0319166001600160a01b0392909216919091179055565b60608315612a675750816117c1565b6117c18383613861565b805160208201206000612a8f8787612a8988886126ff565b85611a51565b6000818152600460205260409020600981015491925090612b235780546001600160a01b0319166001600160a01b038a161781558751612ad890600183019060208b0190613aaa565b508651612aee90600283019060208a0190613b0b565b508551612b049060038301906020890190613b46565b508451612b1a9060048301906020880190613b98565b50600981018390555b505050505050505050565b60006117c18383612b4a60408051602081019091526000815290565b612959565b60006064612b5c836116b1565b604051632394e7a360e21b8152600481018590527f00000000000000000000000000000000000000000000000000000000000000006001600160a01b031690638e539e8c90602401602060405180830381865afa158015612bc1573d6000803e3d6000fd5b505050506040513d601f19601f82011682018060405250810190612be59190614886565b612bef9190614abc565b610ac29190614ad3565b825460009081908015612d3f576000612c178761206060018561496e565b60408051808201909152905463ffffffff808216808452600160201b9092046001600160e01b031660208401529192509087161015612c985760405162461bcd60e51b815260206004820152601760248201527f436865636b706f696e743a20696e76616c6964206b65790000000000000000006044820152606401610bf8565b805163ffffffff808816911603612ce05784612cb98861206060018661496e565b80546001600160e01b0392909216600160201b0263ffffffff909216919091179055612d2f565b6040805180820190915263ffffffff80881682526001600160e01b0380881660208085019182528b54600181018d5560008d81529190912094519151909216600160201b029216919091179101555b602001519250839150612d949050565b50506040805180820190915263ffffffff80851682526001600160e01b0380851660208085019182528854600181018a5560008a815291822095519251909316600160201b0291909316179201919091559050815b935093915050565b60006001600160e01b0319821663bf26d89760e01b1480612dcd57506001600160e01b031982166379dd796f60e01b145b80612de857506001600160e01b03198216630271189760e51b145b80610ac257506301ffc9a760e01b6001600160e01b0319831614610ac2565b6000306001600160a01b037f000000000000000000000000000000000000000000000000000000000000000016148015612e6057507f000000000000000000000000000000000000000000000000000000000000000046145b15612e8a57507f000000000000000000000000000000000000000000000000000000000000000090565b50604080517f00000000000000000000000000000000000000000000000000000000000000006020808301919091527f0000000000000000000000000000000000000000000000000000000000000000828401527f000000000000000000000000000000000000000000000000000000000000000060608301524660808301523060a0808401919091528351808403909101815260c0909201909252805191012090565b6000807f7fffffffffffffffffffffffffffffff5d576e7357a4501ddfe92f46681b20a0831115612f655750600090506003612fe9565b6040805160008082526020820180845289905260ff881692820192909252606081018690526080810185905260019060a0016020604051602081039080840390855afa158015612fb9573d6000803e3d6000fd5b5050604051601f1901519150506001600160a01b038116612fe257600060019250925050612fe9565b9150600090505b94509492505050565b6000816004811115613006576130066142af565b0361300e5750565b6001816004811115613022576130226142af565b0361306f5760405162461bcd60e51b815260206004820152601860248201527f45434453413a20696e76616c6964207369676e617475726500000000000000006044820152606401610bf8565b6002816004811115613083576130836142af565b036130d05760405162461bcd60e51b815260206004820152601f60248201527f45434453413a20696e76616c6964207369676e6174757265206c656e677468006044820152606401610bf8565b60038160048111156130e4576130e46142af565b03610c505760405162461bcd60e51b815260206004820152602260248201527f45434453413a20696e76616c6964207369676e6174757265202773272076616c604482015261756560f01b6064820152608401610bf8565b60008581526004602090815260408083206001600160a01b038816845260088101909252909120805460ff16156131cb5760405162461bcd60e51b815260206004820152602d60248201527f476f7665726e6f72436f6d7061746962696c697479427261766f3a20766f746560448201526c08185b1c9958591e4818d85cdd609a1b6064820152608401610bf8565b805460ff86166101000261ffff199091161760011781556131eb8461388b565b81546001600160601b039190911662010000026dffffffffffffffffffffffff00001990911617815560ff851661323b5783826006016000828254613230919061495b565b90915550611a489050565b60001960ff86160161325b5783826005016000828254613230919061495b565b60011960ff86160161327b5783826007016000828254613230919061495b565b60405162461bcd60e51b815260206004820152602d60248201527f476f7665726e6f72436f6d7061746962696c697479427261766f3a20696e766160448201526c6c696420766f7465207479706560981b6064820152608401610bf8565b8154600160801b90819004600f0b6000818152600180860160205260409091209390935583546001600160801b03908116939091011602179055565b60075460405163e38335e560e01b81526001600160a01b039091169063e38335e590349061335090889088908890600090899060040161489f565b6000604051808303818588803b15801561336957600080fd5b505af115801561337d573d6000803e3d6000fd5b50505050505050505050565b6000818152600160205260408120600281015460ff16156133ad5750600792915050565b6002810154610100900460ff16156133c85750600292915050565b60006133d384610fe3565b9050806000036134255760405162461bcd60e51b815260206004820152601d60248201527f476f7665726e6f723a20756e6b6e6f776e2070726f706f73616c2069640000006044820152606401610bf8565b438110613436575060009392505050565b600061344185611913565b905043811061345557506001949350505050565b61345e856138f3565b8015613480575060008581526004602052604090206006810154600590910154115b1561349057506004949350505050565b506003949350505050565b6000806134aa8686868661391b565b600081815260086020526040902054909150156117a8576007546000828152600860205260409081902054905163c4d252f560e01b81526001600160a01b039092169163c4d252f5916135039160040190815260200190565b600060405180830381600087803b15801561351d57600080fd5b505af1158015613531573d6000803e3d6000fd5b5050506000828152600860205260408120555095945050505050565b60005b818310156128295760006135648484613a27565b60008781526020902090915063ffffffff86169082015463ffffffff16111561358f5780925061359d565b61359a81600161495b565b93505b50613550565b6000806135b53361095d60014361496e565b101561361d5760405162461bcd60e51b815260206004820152603160248201527f476f7665726e6f723a2070726f706f73657220766f7465732062656c6f7720706044820152701c9bdc1bdcd85b081d1a1c995cda1bdb19607a1b6064820152608401610bf8565b60006136328686868680519060200120611a51565b905084518651146136555760405162461bcd60e51b8152600401610bf890614af5565b83518651146136765760405162461bcd60e51b8152600401610bf890614af5565b60008651116136c75760405162461bcd60e51b815260206004820152601860248201527f476f7665726e6f723a20656d7074792070726f706f73616c00000000000000006044820152606401610bf8565b600081815260016020908152604091829020825191820190925281546001600160401b031690819052156137475760405162461bcd60e51b815260206004820152602160248201527f476f7665726e6f723a2070726f706f73616c20616c72656164792065786973746044820152607360f81b6064820152608401610bf8565b600061375a61375560095490565b613a42565b61376343613a42565b61376d9190614b36565b9050600061377d613755600a5490565b6137879083614b36565b835467ffffffffffffffff19166001600160401b038416178455905060018301805467ffffffffffffffff19166001600160401b0383161790557f7d84a6263ae0d98d3329bd7b46bb4e8d6f98cd35a7adb45c274c8b7fd5ebd5e084338b8b8d516001600160401b038111156137ff576137ff613d0d565b60405190808252806020026020018201604052801561383257816020015b606081526020019060019003908161381d5790505b508c88888e60405161384c99989796959493929190614b5d565b60405180910390a15091979650505050505050565b8151156138715781518083602001fd5b8060405162461bcd60e51b8152600401610bf89190613eb8565b60006001600160601b0382111561200c5760405162461bcd60e51b815260206004820152602660248201527f53616665436173743a2076616c756520646f65736e27742066697420696e203960448201526536206269747360d01b6064820152608401610bf8565b600081815260046020526040812060058101546139126109a985610fe3565b11159392505050565b60008061392a86868686611a51565b9050600061393782611321565b9050600281600781111561394d5761394d6142af565b1415801561396d5750600681600781111561396a5761396a6142af565b14155b801561398b57506007816007811115613988576139886142af565b14155b6139d75760405162461bcd60e51b815260206004820152601d60248201527f476f7665726e6f723a2070726f706f73616c206e6f74206163746976650000006044820152606401610bf8565b60008281526001602052604090819020600201805461ff001916610100179055517f789cf55be980739dad1d0699b93b58e806b51c9d96619bfa8fe0a28abaa7b30c90610ed49084815260200190565b6000613a366002848418614ad3565b6117c19084841661495b565b60006001600160401b0382111561200c5760405162461bcd60e51b815260206004820152602660248201527f53616665436173743a2076616c756520646f65736e27742066697420696e203660448201526534206269747360d01b6064820152608401610bf8565b828054828255906000526020600020908101928215613aff579160200282015b82811115613aff57825182546001600160a01b0319166001600160a01b03909116178255602090920191600190910190613aca565b5061200c929150613bea565b828054828255906000526020600020908101928215613aff579160200282015b82811115613aff578251825591602001919060010190613b2b565b828054828255906000526020600020908101928215613b8c579160200282015b82811115613b8c5782518290613b7c9082614c46565b5091602001919060010190613b66565b5061200c929150613bff565b828054828255906000526020600020908101928215613bde579160200282015b82811115613bde5782518290613bce9082614c46565b5091602001919060010190613bb8565b5061200c929150613c1c565b5b8082111561200c5760008155600101613beb565b8082111561200c576000613c138282613c39565b50600101613bff565b8082111561200c576000613c308282613c39565b50600101613c1c565b508054613c459061480b565b6000825580601f10613c55575050565b601f016020900490600052602060002090810190610c509190613bea565b600060208284031215613c8557600080fd5b5035919050565b600060208284031215613c9e57600080fd5b81356001600160e01b0319811681146117c157600080fd5b803560ff81168114613cc757600080fd5b919050565b60008083601f840112613cde57600080fd5b5081356001600160401b03811115613cf557600080fd5b60208301915083602082850101111561203f57600080fd5b634e487b7160e01b600052604160045260246000fd5b604051601f8201601f191681016001600160401b0381118282101715613d4b57613d4b613d0d565b604052919050565b600082601f830112613d6457600080fd5b81356001600160401b03811115613d7d57613d7d613d0d565b613d90601f8201601f1916602001613d23565b818152846020838601011115613da557600080fd5b816020850160208301376000918101602001919091529392505050565b60008060008060008060008060e0898b031215613dde57600080fd5b88359750613dee60208a01613cb6565b965060408901356001600160401b0380821115613e0a57600080fd5b613e168c838d01613ccc565b909850965060608b0135915080821115613e2f57600080fd5b50613e3c8b828c01613d53565b945050613e4b60808a01613cb6565b925060a0890135915060c089013590509295985092959890939650565b60005b83811015613e83578181015183820152602001613e6b565b50506000910152565b60008151808452613ea4816020860160208601613e68565b601f01601f19169290920160200192915050565b6020815260006117c16020830184613e8c565b6001600160a01b0381168114610c5057600080fd5b60008060008060808587031215613ef657600080fd5b8435613f0181613ecb565b93506020850135613f1181613ecb565b92506040850135915060608501356001600160401b03811115613f3357600080fd5b613f3f87828801613d53565b91505092959194509250565b60006001600160401b03821115613f6457613f64613d0d565b5060051b60200190565b600082601f830112613f7f57600080fd5b81356020613f94613f8f83613f4b565b613d23565b82815260059290921b84018101918181019086841115613fb357600080fd5b8286015b84811015613fd7578035613fca81613ecb565b8352918301918301613fb7565b509695505050505050565b600082601f830112613ff357600080fd5b81356020614003613f8f83613f4b565b82815260059290921b8401810191818101908684111561402257600080fd5b8286015b84811015613fd75780358352918301918301614026565b600082601f83011261404e57600080fd5b8135602061405e613f8f83613f4b565b82815260059290921b8401810191818101908684111561407d57600080fd5b8286015b84811015613fd75780356001600160401b038111156140a05760008081fd5b6140ae8986838b0101613d53565b845250918301918301614081565b600080600080608085870312156140d257600080fd5b84356001600160401b03808211156140e957600080fd5b6140f588838901613f6e565b9550602087013591508082111561410b57600080fd5b61411788838901613fe2565b9450604087013591508082111561412d57600080fd5b5061413a8782880161403d565b949793965093946060013593505050565b600081518084526020808501945080840160005b838110156141845781516001600160a01b03168752958201959082019060010161415f565b509495945050505050565b600081518084526020808501945080840160005b83811015614184578151875295820195908201906001016141a3565b600081518084526020808501808196508360051b8101915082860160005b858110156142075782840389526141f5848351613e8c565b988501989350908401906001016141dd565b5091979650505050505050565b608081526000614227608083018761414b565b8281036020840152614239818761418f565b9050828103604084015261424d81866141bf565b9050828103606084015261131681856141bf565b600080600080600060a0868803121561427957600080fd5b8535945061428960208701613cb6565b935061429760408701613cb6565b94979396509394606081013594506080013592915050565b634e487b7160e01b600052602160045260246000fd5b60208101600883106142e757634e487b7160e01b600052602160045260246000fd5b91905290565b6000806040838503121561430057600080fd5b82359150602083013561431281613ecb565b809150509250929050565b6000806040838503121561433057600080fd5b8235915061434060208401613cb6565b90509250929050565b60008060008060006080868803121561436157600080fd5b8535945061437160208701613cb6565b935060408601356001600160401b038082111561438d57600080fd5b61439989838a01613ccc565b909550935060608801359150808211156143b257600080fd5b506143bf88828901613d53565b9150509295509295909350565b600080600080606085870312156143e257600080fd5b843593506143f260208601613cb6565b925060408501356001600160401b0381111561440d57600080fd5b61441987828801613ccc565b95989497509550505050565b6000806000806080858703121561443b57600080fd5b84356001600160401b038082111561445257600080fd5b61445e88838901613f6e565b9550602087013591508082111561447457600080fd5b61448088838901613fe2565b9450604087013591508082111561449657600080fd5b6144a28883890161403d565b935060608701359150808211156144b857600080fd5b50613f3f87828801613d53565b6000806000606084860312156144da57600080fd5b83356144e581613ecb565b92506020840135915060408401356001600160401b0381111561450757600080fd5b61451386828701613d53565b9150509250925092565b60006020828403121561452f57600080fd5b81356117c181613ecb565b600080600080600060a0868803121561455257600080fd5b853561455d81613ecb565b9450602086013561456d81613ecb565b935060408601356001600160401b038082111561458957600080fd5b61459589838a01613fe2565b945060608801359150808211156145ab57600080fd5b6145b789838a01613fe2565b935060808801359150808211156143b257600080fd5b600080600080606085870312156145e357600080fd5b84356145ee81613ecb565b93506020850135925060408501356001600160401b0381111561440d57600080fd5b600082601f83011261462157600080fd5b81356020614631613f8f83613f4b565b82815260059290921b8401810191818101908684111561465057600080fd5b8286015b84811015613fd75780356001600160401b038111156146735760008081fd5b6146818986838b0101613d53565b845250918301918301614654565b600080600080600060a086880312156146a757600080fd5b85356001600160401b03808211156146be57600080fd5b6146ca89838a01613f6e565b965060208801359150808211156146e057600080fd5b6146ec89838a01613fe2565b9550604088013591508082111561470257600080fd5b61470e89838a01614610565b9450606088013591508082111561472457600080fd5b6145b789838a0161403d565b6000806040838503121561474357600080fd5b823561474e81613ecb565b946020939093013593505050565b600080600080600060a0868803121561477457600080fd5b853561477f81613ecb565b9450602086013561478f81613ecb565b9350604086013592506060860135915060808601356001600160401b038111156147b857600080fd5b6143bf88828901613d53565b8183823760009101908152919050565b60208082526018908201527f476f7665726e6f723a206f6e6c79476f7665726e616e63650000000000000000604082015260600190565b600181811c9082168061481f57607f821691505b60208210810361483f57634e487b7160e01b600052602260045260246000fd5b50919050565b60208082526021908201527f476f7665726e6f723a2070726f706f73616c206e6f74207375636365737366756040820152601b60fa1b606082015260800190565b60006020828403121561489857600080fd5b5051919050565b60a0815260006148b260a083018861414b565b82810360208401526148c4818861418f565b905082810360408401526148d881876141bf565b60608401959095525050608001529392505050565b60c08152600061490060c083018961414b565b8281036020840152614912818961418f565b9050828103604084015261492681886141bf565b60608401969096525050608081019290925260a0909101529392505050565b634e487b7160e01b600052601160045260246000fd5b80820180821115610ac257610ac2614945565b81810381811115610ac257610ac2614945565b634e487b7160e01b600052603260045260246000fd5b6080815260006149aa608083018761414b565b82810360208401526149bc818761418f565b905082810360408401526149d081866141bf565b91505082606083015295945050505050565b84815260ff841660208201528260408201526080606082015260006117906080830184613e8c565b85815260ff8516602082015283604082015260a060608201526000614a3260a0830185613e8c565b8281036080840152614a448185613e8c565b98975050505050505050565b600060018201614a6257614a62614945565b5060010190565b600060208284031215614a7b57600080fd5b815180151581146117c157600080fd5b6001600160e01b0319831681528151600090614aae816004850160208701613e68565b919091016004019392505050565b8082028115828204841417610ac257610ac2614945565b600082614af057634e487b7160e01b600052601260045260246000fd5b500490565b60208082526021908201527f476f7665726e6f723a20696e76616c69642070726f706f73616c206c656e67746040820152600d60fb1b606082015260800190565b6001600160401b03818116838216019080821115614b5657614b56614945565b5092915050565b8981526001600160a01b038916602082015261012060408201819052600090614b888382018b61414b565b90508281036060840152614b9c818a61418f565b90508281036080840152614bb081896141bf565b905082810360a0840152614bc481886141bf565b6001600160401b0387811660c0860152861660e08501528381036101008501529050614bf08185613e8c565b9c9b505050505050505050505050565b601f82111561163957600081815260208120601f850160051c81016020861015614c275750805b601f850160051c820191505b8181101561254357828155600101614c33565b81516001600160401b03811115614c5f57614c5f613d0d565b614c7381614c6d845461480b565b84614c00565b602080601f831160018114614ca85760008415614c905750858301515b600019600386901b1c1916600185901b178555612543565b600085815260208120601f198616915b82811015614cd757888601518255948401946001909101908401614cb8565b5085821015614cf55787850151600019600388901b60f8161c191681555b5050505050600190811b0190555056fe476f7665726e6f723a2072656c617920726576657274656420776974686f7574206d657373616765a2646970667358221220f9ca82d09dca1ab3192f826f8ed84ca2fb329072429ba6e763216460a632f6db64736f6c63430008110033",
    "sourcePath": "/Users/joseramirez/projects/blockcoders/dotocrazy-contracts/solidity/contracts/Ballot.sol",
    "compiler": {
        "name": "solc",
        "version": "0.8.17+commit.8df45f5f"
    },
    "functionHashes": {
        "BALLOT_TYPEHASH()": "deaaa7cc",
        "COUNTING_MODE()": "dd4e2ba5",
        "EXTENDED_BALLOT_TYPEHASH()": "2fe3e261",
        "cancel(uint256)": "40e58ee5",
        "castVote(uint256,uint8)": "56781388",
        "castVoteBySig(uint256,uint8,uint8,bytes32,bytes32)": "3bccf4fd",
        "castVoteWithReason(uint256,uint8,string)": "7b3c71d3",
        "castVoteWithReasonAndParams(uint256,uint8,string,bytes)": "5f398a14",
        "castVoteWithReasonAndParamsBySig(uint256,uint8,string,bytes,uint8,bytes32,bytes32)": "03420181",
        "execute(address[],uint256[],bytes[],bytes32)": "2656227d",
        "execute(uint256)": "fe0d94c1",
        "getActions(uint256)": "328dd982",
        "getReceipt(uint256,address)": "e23a9a52",
        "getVotes(address,uint256)": "eb9019d4",
        "getVotesWithParams(address,uint256,bytes)": "9a802a6d",
        "hasVoted(uint256,address)": "43859632",
        "hashProposal(address[],uint256[],bytes[],bytes32)": "c59057e4",
        "name()": "06fdde03",
        "onERC1155BatchReceived(address,address,uint256[],uint256[],bytes)": "bc197c81",
        "onERC1155Received(address,address,uint256,uint256,bytes)": "f23a6e61",
        "onERC721Received(address,address,uint256,bytes)": "150b7a02",
        "proposalDeadline(uint256)": "c01f9e37",
        "proposalEta(uint256)": "ab58fb8e",
        "proposalSnapshot(uint256)": "2d63f693",
        "proposalThreshold()": "b58131b0",
        "proposals(uint256)": "013cf08b",
        "propose(address[],uint256[],bytes[],string)": "7d5e81e2",
        "propose(address[],uint256[],string[],bytes[],string)": "da95691a",
        "queue(address[],uint256[],bytes[],bytes32)": "160cbed7",
        "queue(uint256)": "ddf0b009",
        "quorum(uint256)": "f8ce560a",
        "quorumDenominator()": "97c3d334",
        "quorumNumerator()": "a7713a70",
        "quorumNumerator(uint256)": "60c4247f",
        "quorumVotes()": "24bc1a64",
        "relay(address,uint256,bytes)": "c28bc2fa",
        "state(uint256)": "3e4f49e6",
        "supportsInterface(bytes4)": "01ffc9a7",
        "timelock()": "d33219b4",
        "token()": "fc0c546a",
        "updateQuorumNumerator(uint256)": "06f3f9e6",
        "updateTimelock(address)": "a890c910",
        "version()": "54fd4d50",
        "votingDelay()": "3932abb1",
        "votingPeriod()": "02a251a3"
    },
    "gasEstimates": {
        "creation": {
            "codeDepositCost": "3962200",
            "executionCost": "infinite",
            "totalCost": "infinite"
        },
        "external": {
            "BALLOT_TYPEHASH()": "350",
            "COUNTING_MODE()": "infinite",
            "EXTENDED_BALLOT_TYPEHASH()": "241",
            "cancel(uint256)": "infinite",
            "castVote(uint256,uint8)": "infinite",
            "castVoteBySig(uint256,uint8,uint8,bytes32,bytes32)": "infinite",
            "castVoteWithReason(uint256,uint8,string)": "infinite",
            "castVoteWithReasonAndParams(uint256,uint8,string,bytes)": "infinite",
            "castVoteWithReasonAndParamsBySig(uint256,uint8,string,bytes,uint8,bytes32,bytes32)": "infinite",
            "execute(address[],uint256[],bytes[],bytes32)": "infinite",
            "execute(uint256)": "infinite",
            "getActions(uint256)": "infinite",
            "getReceipt(uint256,address)": "3014",
            "getVotes(address,uint256)": "infinite",
            "getVotesWithParams(address,uint256,bytes)": "infinite",
            "hasVoted(uint256,address)": "2726",
            "hashProposal(address[],uint256[],bytes[],bytes32)": "infinite",
            "name()": "infinite",
            "onERC1155BatchReceived(address,address,uint256[],uint256[],bytes)": "infinite",
            "onERC1155Received(address,address,uint256,uint256,bytes)": "infinite",
            "onERC721Received(address,address,uint256,bytes)": "infinite",
            "proposalDeadline(uint256)": "2695",
            "proposalEta(uint256)": "infinite",
            "proposalSnapshot(uint256)": "2698",
            "proposalThreshold()": "281",
            "proposals(uint256)": "infinite",
            "propose(address[],uint256[],bytes[],string)": "infinite",
            "propose(address[],uint256[],string[],bytes[],string)": "infinite",
            "queue(address[],uint256[],bytes[],bytes32)": "infinite",
            "queue(uint256)": "infinite",
            "quorum(uint256)": "infinite",
            "quorumDenominator()": "282",
            "quorumNumerator()": "6953",
            "quorumNumerator(uint256)": "infinite",
            "quorumVotes()": "infinite",
            "relay(address,uint256,bytes)": "infinite",
            "state(uint256)": "infinite",
            "supportsInterface(bytes4)": "infinite",
            "timelock()": "2387",
            "token()": "infinite",
            "updateQuorumNumerator(uint256)": "infinite",
            "updateTimelock(address)": "infinite",
            "version()": "infinite",
            "votingDelay()": "2382",
            "votingPeriod()": "2372"
        },
        "internal": {
            "_cancel(address[] memory,uint256[] memory,bytes memory[] memory,bytes32)": "infinite",
            "_execute(uint256,address[] memory,uint256[] memory,bytes memory[] memory,bytes32)": "infinite",
            "_executor()": "2156"
        }
    }
}